:1000660041542B43574D4F44453D330D0A004154EF
:100076002B5253540D0A0041542B4349504D5558A9
:100086003D310D0A0041542B4349505345525645C4
:10009600523D312C383038300D0A0041542B43493B
:1000A6005053544F3D323838300D0A0041542B43DB
:1000B600495053544152543D312C27544350270D37
:1000C6000A0041542B4349505354415455530D0A89
:1000D6000032303138303732303134303533350054
:1000E600205B4F4B5D496E697469616C20636F6D6F
:1000F600706C657465642E0D0A005B4F4B5D7375FD
:100106006363656564204D656173757265000D0AEC
:100116000072656369766564206D73673A0072657F
:1001260063697665642057494649206D73673A00CE
:100136001060028C0000FE9292929292FE000000E5
:1001460004047E01407E42427E427E42427E400060
:100156000000FC242424FC252624FC24242404005A
:1001660040308F80844C55252525554C8080800055
:100176001060028C00FE929292929292FE00000013
:1001860004047E014448507F40407F50484440006C
:1001960000FC848484FC001010101010FF10100066
:1001A600003F1010103F0000010640807F00000055
:1001B600000000C0C0000000000000303000000059
:1001C60000F8010600F0121212F2020202FE00000E
:1001D60000FF0000001F1111111F0040807F00006A
:1001E600060909E6F80C040202020202041E0000D7
:1001F600000000071F302040404040402010000013
:10020600F008F0806018000000310C031E211E006B
:1002160000001010F8000000000020203F20200001
:1002260000E010080810E000000F102020100F005A
:1002360000001010F8000000000020203F202000E1
:10024600007008080808F000003028242221300039
:1002560000300808088870000018202121221C00A0
:100266000000804030F8000000060524243F2424C6
:1002760000F88888880808000019202020110E0040
:1002860000E0108888900000000F112020201F0039
:1002960000180808886818000000003E01000000E9
:1002A6000070880808887000001C222121221C008A
:1002B60000F008080810E0000001122222110F00C9
:1002C60000000000000000000030300000000000C8
:1002D600109453321E325210007E4242427E00007B
:1002E600000000FF49494949494949FF000000000B
:1002F60008CC4A49484ACC18007F88888482E000A6
:1003060000FF121252927F00007E88888482E000ED
:10031600000000E0000000FF000000204080000018
:10032600080403000040807F0000000000010E006A
:100336000008884828180FE8080808080808000078
:1003460008080909090909FF09090909090808002E
:10035600000000FC4444444546444444447C0000B8
:100366004020180700FC44444444444444FC000034
:100376000000000000000000000000000000000077
:100386000000000000000000000000000000000067
:100396004044C4444444401010FF101010F00000C4
:1003A600103C131014B840300E014080403F00004E
:1003B6000000000000000000000000000000000037
:1003C6000000000000000000000000000000000027
:1003D6000000F010101010FF10101010F0000000B8
:1003E60000000F04040404FF040404040F000000CA
:1003F600003E22E2223E00FE2222222222E20200C9
:10040600203F201F1111007F4444444444474000CC
:10041600040404F484D4A5A6A4D484F40404040037
:1004260000FE0202123A1613121A3242827E0000AF
:100436000000008080800000000E112020201100A6
:100446008080808080808000203F20003F20003F09
:100456004042CC0000445454547F54545444400009
:1004660000007F201000FF15151555957F00000030
:100476000484E45C44C42010E82724E4342CE0001F
:1004860002017F10103F80601F09093F49897F00E4
:10049600008060F807003E2222E222223E00000091
:1004A600010000FF2011090503FF030509112000C3
:1004B60080828282FE8282828282FE8282828000A4
:1004C600008040300F0000000000FF000000000028
:1004D60000001011161010F0101014131000000078
:1004E6008181414121110D030D112141418181007D
:1004F600101010FF90401C10F09F909092941000E6
:100506000242817F40209887402F10284483800034
:100516004262524AC6425262C200F80000FF000020
:1005260040C444447F24242420000F40807F0000E0
:1005360000020202020202E222120A060200000081
:10054600000000000040807F000000000000000066
:1005560008F800F800F8080000000000000000009D
:1005660000033E013E030000000000000000000002
:10057600000808F80808000000000000000000005D
:100586000020203F202000000000000000000000A6
:1005960008F88888E8081000000000000000000045
:1005A600203F2000030000000000000000000000C3
:1005B600000808F80808000000000000000000001D
:1005C6000020203F20200000000000000000000066
:1005D6008060F80700FE02F202FE00F800FF00004D
:1005E6000000FF008047300F10270047807F000083
:1005F6000202F292929292FE92929292F20202007B
:100606000404FF0404040407040444847F0404006F
:10061600101010FF9020988888E98E8888A8980086
:100626000242817F000080844B281028478000000A
:10063600020202020202FE020242820202020200DA
:10064600000000000000FF0000000001060000009E
:10065600101010FF9020988888E98E8888A8980046
:100666000242817F000080844B28102847800000CA
:100676004030EF242480E49C105454FF547C100036
:1006860001017F21512618274445455F4545440011
:100696000000000000000000000000000000000054
:1006A6000000000000000000000000000000000044
:101365000623000100010001043200010001C1044F
:10137500C105016400C102C103C10002650000028C
:0D1385006700000269000002210000C101A4
:0B15DD000000007F0B7EBEDEFEDFFC86
:0115E80022E0
:0E13E5001214E27FE87E031213F37FE87E030A
:1013F300AD07AC06D3ED9400EC64809480400A12F0
:0A14030015DDED1D70EE1C80EB22DC
:070003000000007F34DFFE66
:01000A0022D3
:06165B0000007F50DFFEDD
:011661002266
:0E15A30000007F017ED87D23DDFEDEFCDFFA36
:0115B1002217
:0915C100E4F5A07F14FE1213F3FF
:0515CA00D2A0C2A12225
:0915CF00E4F5A07F14FE1213F3F1
:0515D800C2A0D2A12217
:0715E9007F147E001213F3D2
:0515F000C2A2D2A322FB
:0715F5007F147E001213F3C6
:0515FC00D2A2C2A322EF
:071601007F147E001213F3B9
:05160800D2A4C2A522DE
:07160D007F147E001213F3AD
:05161400C2A4D2A522D2
:071619007F147E001213F3A1
:05162000D2A6C2A722C2
:071625007F147E001213F395
:05162C00C2A6D2A722B6
:10150E001215C11215E91216011216257FF47E016D
:03151E000213F3C2
:101521001215CF1215F512160D1216197FF47E0140
:031531000213F3AF
:101534001215C11215F51216011216197FF47E0147
:031544000213F39C
:101547001215CF1215E912160D1216257FF47E011A
:031557000213F389
:0A164800E4F5A07FF47E010213F325
:06163D00F8E6FE08E6FFDE
:04164300EF2430FF61
:011647002280
:08165200EF24D0FFE434FFFE99
:01165A00226D
:1014C600121652EFC4F8540FC868FFEEC454F04821
:0C14D600FE74262FF974023EFA7BFF2200
:10139300C294C292E4FDC290EF30E704D29180027E
:1013A300C291D290EF7801088005C333CE33CED8F3
:0813B300F9FF0DBD08E0D29422
:0113BB00220F
:10140D00C294D292E4FEC290EF30E704D2918002F2
:10141D00C291D2907D01EF7801088002C333D8FCD0
:07142D00FF0EBE08E1D2949E
:011434002295
:100F5500C2937F647E001213F3D2937F647E0012E6
:100F650013F37FE27E001213937F057E001213F3C5
:100F75007F2C7E001213937F327E001213F37F2E97
:100F85007E001213937F327E001213F37F2F7E00B3
:100F95001213937F057E001213F37F237E00121335
:100FA500937F817E001213937F287E001213937F17
:100FB500A27E001213937FC87E001213937FA07E3A
:100FC500001213937F407E001213937FAF7E0002C1
:020FD500139374
:10133300AB05AA04EB1B70011AEF24AFFFE43EFEDA
:10134300121393EAC4F854F0C8EBC4540F48540F73
:101353002410FFE433FE1213937E00EB540FFF02BD
:021363001393E2
:1013BC00E4FCEC24B0FFE433FE1213937F107E00A8
:1013CC00121393E4FFFE121393E4FBE4FF12140DCB
:0813DC000BBB84F70CBC09DA1D
:0113E40022E6
:0410B8007BFF7F013A
:0A10BC008F158D168B178A188919FD
:1010C600E4F51CF51D7E00E51D2515FFEE351CFE1D
:1010D600AD167C00121333E4F51AF51BAB17AA18EC
:1010E600A9191208D9FF12140D74012519F519E46E
:1010F6003518F518051BE51B7002051AC39410E593
:101106001A940040D7051DE51D7002051CC3940204
:06111600E51C940040AF4F
:01111C0022B0
:100FD700C4F8540FC868FFECC454F048FE74262FB9
:090FE700F974023EFA7BFF7F055C
:0A0FF0008F138D148B158A168917D4
:100FFA00E4F51AF51B7E00E51B2513FFEE351AFEF4
:10100A00AD147C00121333E4F518F519AB15AA16C2
:10101A00A9171208D9FF12140D74012517F517E440
:10102A003516F5160519E51970020518C39408E571
:10103A0018940040D7051BE51B7002051AC39402D9
:06104A00E51A940040AF1E
:01105000227D
:0A1241008F0C8D0D8B0E8A0F8910A3
:10124B00E4F513F514C3E5149512E5139511503617
:10125B00E514C454F0250D14FDE514AE137805C345
:10126B0033CE33CED8F9AB0E2510F9E50F3EFAE9A4
:10127B0024FFF9EA34FFFAAF0C1210BC0514E51485
:06128B0070C3051380BFD3
:01129100223A
:10145C007BFF7A0279D67511007512047D207F020C
:10146C001212417BFF7A0379567511007512057DB6
:06147C00187F040212417A
:101292007BFF7A0479567511007512077D017F0173
:1012A2001212417BFF7A0579567511007512057D80
:1012B200017F031212417BFF7A0579F675110075E1
:0912C20012067D017F05021241B4
:041631007F647E0054
:08163500C2B61213F3D2B62273
:1014820053873F759850438E40538EFE53890F43C6
:101492008920C2ABD28ED29C758BFD758DFDD2ACEC
:0314A200D2AF22A4
:0715B2007436250BF8E6FF7B
:0815B9008F993099FDC29922BF
:1014E2001208D96010F5993099FDC299740129F951
:0614F200E43AFA80EB224F
:0C1181008F0C8C0D8D0E8B0F8A108911C5
:10118D00E4F512AB0FAA10A91175F002E512A4F542
:10119D008285F0831209BCC4F8540FC868FFE5F0CE
:1011AD00C454F048FE74262FF974023EFA7BFFAD4D
:1011BD000EAF0C120FF07408250EF50EE4350DF57B
:1011CD000D0512E512C3940240B9AD0E7BFF7A02F4
:0711DD007906AF0C020FF0D0
:0C0D84008F0C8C0D8D0E8B0F8A108911C6
:100D9000E4F512AB0FAA10A91175F002E512A4F543
:100DA0008285F0831209BCC4F8540FC868FFE5F0CF
:100DB000C454F048FE74262FF974023EFA7BFFAD4E
:100DC0000EAF0C120FF07408250EF50EE4350DF57C
:100DD0000D0512E512C3940240B9AD0E7BFF7A02F5
:100DE00079C6AF0C120FF07408250EF50EE4350D20
:100DF000F50DAB0FAA10A91175F002E512A4F5824A
:100E000085F0831209BCC4F8540FC868FFE5F0C42C
:100E100054F048FE74262FF974023EFA7BFFAD0EA3
:100E2000AF0C120FF07408250EF50EE4350DF50D1C
:0D0E3000AD0E7BFF7A0179E6AF0C0210BC1D
:10111D007A0179367D011210B87A0179567D111256
:10112D0010B87BFF7A0179B67D217F01120FF07B1C
:10113D00007A0079237D297C007F01120D847BFFCD
:10114D007A0179767D017F031210BC7BFF7A0179DC
:10115D00567D117F031210BC7BFF7A0179B67D217C
:10116D007F03120FF07B007A0079327D297C007F9E
:04117D0003021181D7
:100BE800E4FBF582F583C2C01215A3D2C012165BCE
:100BF8007F5030C006AE071FEE70F7EF7002D2C00C
:100C08007FFA20C006AE071FEE70F7EF7002D2C061
:100C18007FFA30C006AE071FEE70F7EF7002D2C041
:100C2800E4FEE4FC7F9620C006AD071FED70F7EFE9
:100C38007002D2C0E4FF30C0040FEF70F9EB25E07A
:100C4800FBEFD3941E40010B0CBC08D874292EF876
:100C5800A6030EBE05CC12165B12165BD2C0E4FCCE
:100C680074292CF8E62582F582E43583F5830CBCDB
:100C780004EEAF82EF652D703DE52B75F00A8475A3
:100C88002300F524E52B75F00A84AFF07525008F55
:100C980026E52C75F00A84AFF07527008F28E52922
:100CA80075F00A84753200F533E52975F00A84AFCA
:060CB800F07534008F35D9
:010CBE002213
:10130000E4FDFCED25E0242312163D1215B90DBDB8
:1013100000010CED64034C70EAE4FCFDED25E024D3
:101320003212163D1215B90DBD00010CED64024CD0
:0213300070EA61
:011332002298
:06166900120BE802111D46
:10155A00D2C5D2C4D2C28F80C2C5C2C28D80D2C205
:03156A00D2C522C5
:1014F800D2C5D2C4D2C28F80C2C5C2C47580FFAF64
:0515080080D2C4D2C531
:01150D0022BB
:10156D007D2F7F0A12155A7D060F12155AE4FD0FB5
:03157D0002155AFA
:1009F4001208D9FE900001B430071208F224D08006
:100A04000C1208F2FFEE75F00AA42F24F0FD7F32D9
:100A140012155A9000021208F2FEB4300A90000334
:100A24001208F224D0800FEE75F00AA4FF900003A0
:100A34001208F22F24F0FD7F0912155A90000412B7
:100A440008F2FEB4300A9000051208F224D0800F98
:100A5400EE75F00AA4FF9000051208F22F24F0FDB1
:100A64007F0812155A9000061208F2FEB4300A905C
:100A740000071208F224D0800FEE75F00AA4FF904C
:100A840000071208F22F24F0FD7F0712155A900078
:100A9400081208F2FEB4300A9000091208F224D0B9
:100AA400800FEE75F00AA4FF9000091208F22F24BB
:100AB400F0FD7F0412155A90000A1208F2FEB430B9
:100AC4000A90000B1208F224D0800FEE75F00AA4ED
:100AD400FF90000B1208F22F24F0FD7F0212155A2A
:100AE40090000C1208F2FEB4300A90000D1208F2C5
:100AF40024D0800FEE75F00AA4FF90000D1208F2C6
:0A0B04002F24F0FDE4FF12155A2221
:100B0E007F321214F8EF75F06484E5F075F00A8404
:100B1E002430F556EF75F00A84E5F02430F5577F52
:100B2E00091214F8EF75F06484E5F075F00A842468
:100B3E0030F558EF75F00A84E5F02430F5597F084A
:100B4E001214F8EF75F06484E5F075F00A84243021
:100B5E00F55AEF75F00A84E5F02430F55B7F071245
:100B6E0014F8EF75F06484E5F075F00A842430F51E
:100B7E005CEF75F00A84E5F02430F55D7F04121405
:100B8E00F8EF75F06484E5F075F00A842430F55EB4
:100B9E00EF75F00A84E5F02430F55F7F021214F849
:100BAE00EF75F06484E5F075F00A842430F560EF9B
:100BBE0075F00A84E5F02430F561E4FF1214F8EFC5
:100BCE0075F06484E5F075F00A842430F562EF75F3
:090BDE00F00A84E5F02430F5630F
:010BE70022EB
:100E3D00120B0E7BFF7A0179967D017F071210BC94
:100E4D007BFF7A0179C67D107F071210BC7BFF7A7C
:100E5D000179B67D207F07120FF0AF5E1214C67DAB
:100E6D00287F07120FF0AF5F1214C67D307F071277
:100E7D000FF07BFF7A0179B67D387F07120FF0AF47
:100E8D00601214C67D407F07120FF0AF611214C6B9
:100E9D007D487F07120FF07BFF7A0179B67D507F79
:100EAD0007120FF0AF621214C67D587F07120FF0B4
:0C0EBD00AF631214C67D607F07020FF0C7
:1012CB002097127F0A7E001213F320970812163113
:1012DB00D2043097FD20961C7F0A7E001213F32058
:1012EB009612D2051216313096FD7F017E00121335
:0512FB00F375C720227D
:030023000211E4E3
:1011E400C0E0C0D075D000C000C007309841C2989C
:1011F40074362564F8A6990564AF991215B9E564A7
:101204006420600F74352564F8E6FF640A6004EF17
:10121400B47C1C752E0085642F756400D202E536FB
:10122400B42B0CE537B45007E539B44402D203308B
:0D1234009902C299D007D000D0D0D0E0328E
:03000B000214A537
:1014A500C0E0C0D00566E56670020565B4B80DE517
:1014B50065B40B08756500756600D200D0D0D0E024
:0114C50032F4
:030013000214359F
:10143500C0E0E52245217007F5217522018015E5FB
:1014450022640145217007F5217522028006752168
:0714550000752200D0E03217
:0300630002105137
:10105100C0E0C0F0C0D075D000C000C004C005C061
:1010610006C007121631E5226401452170080566A4
:10107100E56670020565E522640245217028D2010A
:10108100AE65AF66FC7D3212091F7C037DE8120953
:10109100318E698F6A7C007D2212091F8E308F315B
:1010A100756500756600D007D006D005D004D00064
:0710B100D0D0D0F0D0E032F6
:07166200C28AD2AAD2AF2216
:0D001600C2951215DDD295120003C295228D
:10159300438E0475D7AE75D6FB438E1043AF04223A
:06166F0012166202159341
:100CBF007BFF7A0379F67511007512027D017F05AE
:100CCF001212417BFF7A0179B67D217F05120FF059
:100CDF00AE30AF317C037DE81209867C007D0A12AD
:100CEF000986ED7D29120FD7AE30AF317C007D64C0
:100CFF001209867C007D0A120986ED7D31120FD70D
:100D0F00AE30AF317C007D0A1209867C007D0A125D
:100D1F000986EDC4F8540FC868FFECC454F048FEC0
:100D2F0074262FF974023EFA7BFF7D397F05120F6F
:100D3F00F0AE30AF317C007D0A120986EDC4F85455
:100D4F000FC868FFECC454F048FE74262FF97402E4
:100D5F003EFA7BFF7D417F05120FF07BFF7A04790E
:100D6F00367D497F05120FF07BFF7A0479467D515E
:050D7F007F05020FF0EA
:03000E00020016D7
:100026007BFF7A0079661213E57A0079741213E57C
:100036007A00797D1213E57A00798B1213E57A003E
:1000460079A11213E57A0079B21213E57A0079C81C
:0D0056001214E21213EF7FE87E030213F391
:10158000438E805389F0758ACD758CD4D28CD2A9C4
:03159000D2AF22B5
:1006B60012164812148212156D120F551213BC121F
:1006C60012927BFF7A0279167D517F05120FF01286
:1006D60012CB3004FAB2047BFF7A0079D71209F400
:1006E6001215801213BC12145C7FD07E071213F30E
:1006F6001200261213BC12166F7BFF7A0079E612DF
:1007060014E21212CB300402B20430004DC20012C1
:10071600000E12166930010EC201120CBF7BFF7A61
:100726000179001214E27F647E001213F37F4812EF
:1007360015B91213007F541215B9E4FDFC745E2D31
:10074600F8E6FF1215B90DBD00010CED64064C70FC
:10075600EC7BFF7A0179141214E2120E3D3002A2EC
:10076600C2027BFF7A0179171214E2E4F50AF50B4F
:10077600C3E50B952FE50A952E500D1215B2050B04
:10078600E50B70EC050A80E8E536B4570AE537B4A0
:10079600570512150E8055E536B4530AE537B4539E
:1007A600051215218046E536B4440AE537B44405FA
:1007B6001215478037E536B4410FE537B4410AE5EF
:1007C60038B47C051215348023E536B450087537E5
:1007D600501216488016E536B453117537547538DD
:1007E6003AE4F547FB7A0079391209F4200303024B
:1007F6000708C203E4F508F5097BFF7A017924129C
:1008060014E2E4F50AF50BC3E50B952FE50A952EE0
:10081600500D1215B2050BE50B70EC050A80E87455
:10082600362509F8E6643A600A0509E50970F00517
:100836000880EC7B007A0079361214E2AF09743630
:100846002FF8E6FBB4570E74372FF8E6B47C061281
:10085600150E020708EBB4530F74372509F8E6B4F2
:100866007C06121521020708AF0974362FF8E6B484
:10087600440E74372FF8E6B47C06121547020708B3
:10088600AF0974362FF8E6FBB4410E74372FF8E63D
:10089600B47C06121534020708EBB4500F743725E2
:1008A60009F8E6B47C06121648020708AF09743642
:1008B6002FF8E66453600302070874372FF876545E
:1008C60074382FF8763A74392FF9E4FAFB1209F4E2
:0308D6000207080E
:03000000020EC924
:0C0EC900787FE4F6D8FD75816A020F10F6
:1008D900BB010689828A83E0225002E722BBFE021D
:0908E900E32289828A83E4932250
:1008F200BB010CE58229F582E5833AF583E02250BB
:1009020006E92582F8E622BBFE06E92582F8E22204
:0D091200E58229F582E5833AF583E493221E
:10091F00EF8DF0A4A8F0CF8CF0A428CE8DF0A42EEC
:02092F00FE22A6
:10093100BC000BBE0029EF8DF084FFADF022E4CCAA
:10094100F875F008EF2FFFEE33FEEC33FCEE9DEC73
:10095100984005FCEE9DFE0FD5F0E9E4CEFD22EDB9
:10096100F8F5F0EE8420D21CFEADF075F008EF2F03
:10097100FFED33FD4007985006D5F0F222C398FDF4
:050981000FD5F0EA2291
:10098600C2D5EC30E709B2D5E4C39DFDE49CFCEE8C
:1009960030E715B2D5E4C39FFFE49EFE120931C3CA
:1009A600E49DFDE49CFC800312093130D507C3E4C5
:0609B6009FFFE49EFE22FB
:1009BC00BB0110E58229F582E5833AF583E0F5F079
:1009CC00A3E0225009E92582F886F008E622BBFE56
:1009DC000AE92582F8E2F5F008E222E5832AF5839C
:0809EC00E993F5F0A3E9932261
:100ED5000206B6E493A3F8E493A34003F68001F277
:100EE50008DFF48029E493A3F85407240CC8C3331E
:100EF500C4540F4420C8834004F456800146F6DFED
:100F0500E4800B0102040810204080901365E47E04
:100F1500019360BCA3FF543F30E509541FFEE493E1
:100F2500A360010ECF54C025E060A840B8E493A3A8
:100F3500FAE493A3F8E493A3C8C582C8CAC583CAD3
:100F4500F0A3C8C582C8CAC583CADFE9DEE780BE8B
:01139200005A
:00000001FF
